{
  "_format": "hh-sol-artifact-1",
  "contractName": "DecomposeRewardDistributor",
  "sourceName": "contracts/DecomposeRewardDistributor.sol",
  "abi": [
    {
      "anonymous": false,
      "inputs": [
        {
          "indexed": true,
          "internalType": "address",
          "name": "beneficiary",
          "type": "address"
        },
        {
          "indexed": false,
          "internalType": "uint256",
          "name": "amount",
          "type": "uint256"
        }
      ],
      "name": "ANMDistributed",
      "type": "event"
    },
    {
      "anonymous": false,
      "inputs": [
        {
          "indexed": false,
          "internalType": "address",
          "name": "previousAdmin",
          "type": "address"
        },
        {
          "indexed": false,
          "internalType": "address",
          "name": "newAdmin",
          "type": "address"
        }
      ],
      "name": "AdminChanged",
      "type": "event"
    },
    {
      "anonymous": false,
      "inputs": [
        {
          "indexed": true,
          "internalType": "address",
          "name": "beacon",
          "type": "address"
        }
      ],
      "name": "BeaconUpgraded",
      "type": "event"
    },
    {
      "anonymous": false,
      "inputs": [
        {
          "indexed": true,
          "internalType": "address",
          "name": "beneficiary",
          "type": "address"
        },
        {
          "indexed": true,
          "internalType": "uint256",
          "name": "tokenId",
          "type": "uint256"
        },
        {
          "indexed": true,
          "internalType": "uint256",
          "name": "day",
          "type": "uint256"
        },
        {
          "indexed": false,
          "internalType": "uint8",
          "name": "requestShard",
          "type": "uint8"
        }
      ],
      "name": "ExtractionCompleted",
      "type": "event"
    },
    {
      "anonymous": false,
      "inputs": [
        {
          "indexed": true,
          "internalType": "address",
          "name": "beneficiary",
          "type": "address"
        },
        {
          "indexed": true,
          "internalType": "uint256",
          "name": "tokenId",
          "type": "uint256"
        },
        {
          "indexed": false,
          "internalType": "uint256",
          "name": "jobId",
          "type": "uint256"
        },
        {
          "indexed": false,
          "internalType": "uint8",
          "name": "requestShard",
          "type": "uint8"
        }
      ],
      "name": "ExtractionStarted",
      "type": "event"
    },
    {
      "anonymous": false,
      "inputs": [
        {
          "indexed": false,
          "internalType": "uint8",
          "name": "version",
          "type": "uint8"
        }
      ],
      "name": "Initialized",
      "type": "event"
    },
    {
      "anonymous": false,
      "inputs": [
        {
          "indexed": true,
          "internalType": "address",
          "name": "previousOwner",
          "type": "address"
        },
        {
          "indexed": true,
          "internalType": "address",
          "name": "newOwner",
          "type": "address"
        }
      ],
      "name": "OwnershipTransferred",
      "type": "event"
    },
    {
      "anonymous": false,
      "inputs": [
        {
          "indexed": true,
          "internalType": "address",
          "name": "implementation",
          "type": "address"
        }
      ],
      "name": "Upgraded",
      "type": "event"
    },
    {
      "inputs": [],
      "name": "ANMToken",
      "outputs": [
        {
          "internalType": "contract IERC20",
          "name": "",
          "type": "address"
        }
      ],
      "stateMutability": "view",
      "type": "function"
    },
    {
      "inputs": [
        {
          "internalType": "address",
          "name": "_decomposeListener",
          "type": "address"
        }
      ],
      "name": "addDecomposeListener",
      "outputs": [],
      "stateMutability": "nonpayable",
      "type": "function"
    },
    {
      "inputs": [],
      "name": "anmDistributor",
      "outputs": [
        {
          "internalType": "contract ANMDailyDistributor",
          "name": "",
          "type": "address"
        }
      ],
      "stateMutability": "view",
      "type": "function"
    },
    {
      "inputs": [],
      "name": "budgetManager",
      "outputs": [
        {
          "internalType": "contract IPurchaseBudgetManager",
          "name": "",
          "type": "address"
        }
      ],
      "stateMutability": "view",
      "type": "function"
    },
    {
      "inputs": [],
      "name": "clearDecomposeListeners",
      "outputs": [],
      "stateMutability": "nonpayable",
      "type": "function"
    },
    {
      "inputs": [
        {
          "internalType": "uint256",
          "name": "jobId",
          "type": "uint256"
        }
      ],
      "name": "completeDecomposition",
      "outputs": [],
      "stateMutability": "nonpayable",
      "type": "function"
    },
    {
      "inputs": [],
      "name": "currentBeneficiaryIndex",
      "outputs": [
        {
          "internalType": "uint256",
          "name": "",
          "type": "uint256"
        }
      ],
      "stateMutability": "view",
      "type": "function"
    },
    {
      "inputs": [
        {
          "internalType": "uint128",
          "name": "",
          "type": "uint128"
        }
      ],
      "name": "dailyDistributions",
      "outputs": [
        {
          "internalType": "bool",
          "name": "distributed",
          "type": "bool"
        },
        {
          "internalType": "uint256",
          "name": "numDecompose",
          "type": "uint256"
        },
        {
          "internalType": "uint256",
          "name": "totalBidAmount",
          "type": "uint256"
        }
      ],
      "stateMutability": "view",
      "type": "function"
    },
    {
      "inputs": [
        {
          "internalType": "uint256",
          "name": "",
          "type": "uint256"
        }
      ],
      "name": "decomposeListeners",
      "outputs": [
        {
          "internalType": "address",
          "name": "",
          "type": "address"
        }
      ],
      "stateMutability": "view",
      "type": "function"
    },
    {
      "inputs": [],
      "name": "decomposer",
      "outputs": [
        {
          "internalType": "contract Decomposer",
          "name": "",
          "type": "address"
        }
      ],
      "stateMutability": "view",
      "type": "function"
    },
    {
      "inputs": [
        {
          "internalType": "uint256",
          "name": "numBeneficiaries",
          "type": "uint256"
        }
      ],
      "name": "distributeANMRewards",
      "outputs": [],
      "stateMutability": "nonpayable",
      "type": "function"
    },
    {
      "inputs": [],
      "name": "erc721Token",
      "outputs": [
        {
          "internalType": "contract IERC721",
          "name": "",
          "type": "address"
        }
      ],
      "stateMutability": "view",
      "type": "function"
    },
    {
      "inputs": [
        {
          "internalType": "uint256",
          "name": "",
          "type": "uint256"
        }
      ],
      "name": "extractionRecords",
      "outputs": [
        {
          "internalType": "uint8",
          "name": "requestShard",
          "type": "uint8"
        },
        {
          "internalType": "address",
          "name": "beneficiary",
          "type": "address"
        },
        {
          "internalType": "uint256",
          "name": "tokenId",
          "type": "uint256"
        },
        {
          "internalType": "uint256",
          "name": "jobId",
          "type": "uint256"
        },
        {
          "internalType": "uint256",
          "name": "bidAmount",
          "type": "uint256"
        }
      ],
      "stateMutability": "view",
      "type": "function"
    },
    {
      "inputs": [],
      "name": "finalizableRole",
      "outputs": [
        {
          "internalType": "address",
          "name": "",
          "type": "address"
        }
      ],
      "stateMutability": "view",
      "type": "function"
    },
    {
      "inputs": [
        {
          "internalType": "uint128",
          "name": "dfe",
          "type": "uint128"
        }
      ],
      "name": "getStatsOfDay",
      "outputs": [
        {
          "components": [
            {
              "internalType": "uint256",
              "name": "rewardRate",
              "type": "uint256"
            },
            {
              "internalType": "uint256",
              "name": "numDecompose",
              "type": "uint256"
            },
            {
              "internalType": "uint256",
              "name": "costOfArcana",
              "type": "uint256"
            },
            {
              "internalType": "uint256",
              "name": "numContributors",
              "type": "uint256"
            }
          ],
          "internalType": "struct IDecomposeStatsProvider.DecomposeStats",
          "name": "",
          "type": "tuple"
        }
      ],
      "stateMutability": "view",
      "type": "function"
    },
    {
      "inputs": [
        {
          "internalType": "address",
          "name": "_decomposer",
          "type": "address"
        },
        {
          "internalType": "address",
          "name": "_ANMToken",
          "type": "address"
        },
        {
          "internalType": "address",
          "name": "_erc721Token",
          "type": "address"
        },
        {
          "internalType": "address",
          "name": "_shardToken",
          "type": "address"
        },
        {
          "internalType": "address",
          "name": "_anmDistributor",
          "type": "address"
        },
        {
          "internalType": "address",
          "name": "_budgetManager",
          "type": "address"
        }
      ],
      "name": "initialize",
      "outputs": [],
      "stateMutability": "nonpayable",
      "type": "function"
    },
    {
      "inputs": [],
      "name": "nextDistributionDay",
      "outputs": [
        {
          "internalType": "uint128",
          "name": "",
          "type": "uint128"
        }
      ],
      "stateMutability": "view",
      "type": "function"
    },
    {
      "inputs": [
        {
          "internalType": "address",
          "name": "",
          "type": "address"
        },
        {
          "internalType": "address",
          "name": "",
          "type": "address"
        },
        {
          "internalType": "uint256[]",
          "name": "",
          "type": "uint256[]"
        },
        {
          "internalType": "uint256[]",
          "name": "",
          "type": "uint256[]"
        },
        {
          "internalType": "bytes",
          "name": "",
          "type": "bytes"
        }
      ],
      "name": "onERC1155BatchReceived",
      "outputs": [
        {
          "internalType": "bytes4",
          "name": "",
          "type": "bytes4"
        }
      ],
      "stateMutability": "pure",
      "type": "function"
    },
    {
      "inputs": [
        {
          "internalType": "address",
          "name": "",
          "type": "address"
        },
        {
          "internalType": "address",
          "name": "",
          "type": "address"
        },
        {
          "internalType": "uint256",
          "name": "",
          "type": "uint256"
        },
        {
          "internalType": "uint256",
          "name": "",
          "type": "uint256"
        },
        {
          "internalType": "bytes",
          "name": "",
          "type": "bytes"
        }
      ],
      "name": "onERC1155Received",
      "outputs": [
        {
          "internalType": "bytes4",
          "name": "",
          "type": "bytes4"
        }
      ],
      "stateMutability": "pure",
      "type": "function"
    },
    {
      "inputs": [
        {
          "internalType": "address",
          "name": "",
          "type": "address"
        },
        {
          "internalType": "address",
          "name": "",
          "type": "address"
        },
        {
          "internalType": "uint256",
          "name": "",
          "type": "uint256"
        },
        {
          "internalType": "bytes",
          "name": "",
          "type": "bytes"
        }
      ],
      "name": "onERC721Received",
      "outputs": [
        {
          "internalType": "bytes4",
          "name": "",
          "type": "bytes4"
        }
      ],
      "stateMutability": "pure",
      "type": "function"
    },
    {
      "inputs": [
        {
          "internalType": "address",
          "name": "winnerAddress",
          "type": "address"
        },
        {
          "internalType": "uint256",
          "name": "tokenId",
          "type": "uint256"
        },
        {
          "internalType": "uint256",
          "name": "bidAmount",
          "type": "uint256"
        },
        {
          "internalType": "uint8",
          "name": "winningAction",
          "type": "uint8"
        }
      ],
      "name": "onFinalize",
      "outputs": [],
      "stateMutability": "nonpayable",
      "type": "function"
    },
    {
      "inputs": [],
      "name": "owner",
      "outputs": [
        {
          "internalType": "address",
          "name": "",
          "type": "address"
        }
      ],
      "stateMutability": "view",
      "type": "function"
    },
    {
      "inputs": [
        {
          "internalType": "uint256",
          "name": "batchSize",
          "type": "uint256"
        }
      ],
      "name": "processUncompletedDecompositions",
      "outputs": [],
      "stateMutability": "nonpayable",
      "type": "function"
    },
    {
      "inputs": [],
      "name": "proxiableUUID",
      "outputs": [
        {
          "internalType": "bytes32",
          "name": "",
          "type": "bytes32"
        }
      ],
      "stateMutability": "view",
      "type": "function"
    },
    {
      "inputs": [],
      "name": "renounceOwnership",
      "outputs": [],
      "stateMutability": "nonpayable",
      "type": "function"
    },
    {
      "inputs": [],
      "name": "rewardRate",
      "outputs": [
        {
          "internalType": "uint256",
          "name": "",
          "type": "uint256"
        }
      ],
      "stateMutability": "view",
      "type": "function"
    },
    {
      "inputs": [
        {
          "internalType": "address",
          "name": "_anmDistributor",
          "type": "address"
        }
      ],
      "name": "setANMDistributor",
      "outputs": [],
      "stateMutability": "nonpayable",
      "type": "function"
    },
    {
      "inputs": [
        {
          "internalType": "address",
          "name": "_decomposer",
          "type": "address"
        }
      ],
      "name": "setDecomposer",
      "outputs": [],
      "stateMutability": "nonpayable",
      "type": "function"
    },
    {
      "inputs": [
        {
          "internalType": "address",
          "name": "_addr",
          "type": "address"
        },
        {
          "internalType": "bool",
          "name": "gainOrLose",
          "type": "bool"
        }
      ],
      "name": "setFinalizable",
      "outputs": [],
      "stateMutability": "nonpayable",
      "type": "function"
    },
    {
      "inputs": [
        {
          "internalType": "address",
          "name": "_addr",
          "type": "address"
        }
      ],
      "name": "setFinalizableRole",
      "outputs": [],
      "stateMutability": "nonpayable",
      "type": "function"
    },
    {
      "inputs": [
        {
          "internalType": "address",
          "name": "_budgetManager",
          "type": "address"
        }
      ],
      "name": "setPurchaseBudgetManager",
      "outputs": [],
      "stateMutability": "nonpayable",
      "type": "function"
    },
    {
      "inputs": [
        {
          "internalType": "uint256",
          "name": "rate",
          "type": "uint256"
        }
      ],
      "name": "setRewardRate",
      "outputs": [],
      "stateMutability": "nonpayable",
      "type": "function"
    },
    {
      "inputs": [],
      "name": "shardToken",
      "outputs": [
        {
          "internalType": "contract IERC1155",
          "name": "",
          "type": "address"
        }
      ],
      "stateMutability": "view",
      "type": "function"
    },
    {
      "inputs": [
        {
          "internalType": "bytes4",
          "name": "interfaceId",
          "type": "bytes4"
        }
      ],
      "name": "supportsInterface",
      "outputs": [
        {
          "internalType": "bool",
          "name": "",
          "type": "bool"
        }
      ],
      "stateMutability": "view",
      "type": "function"
    },
    {
      "inputs": [
        {
          "internalType": "address",
          "name": "newOwner",
          "type": "address"
        }
      ],
      "name": "transferOwnership",
      "outputs": [],
      "stateMutability": "nonpayable",
      "type": "function"
    },
    {
      "inputs": [
        {
          "internalType": "uint256",
          "name": "",
          "type": "uint256"
        }
      ],
      "name": "uncompletedJobIdIndex",
      "outputs": [
        {
          "internalType": "uint256",
          "name": "",
          "type": "uint256"
        }
      ],
      "stateMutability": "view",
      "type": "function"
    },
    {
      "inputs": [
        {
          "internalType": "uint256",
          "name": "",
          "type": "uint256"
        }
      ],
      "name": "uncompletedJobIds",
      "outputs": [
        {
          "internalType": "uint256",
          "name": "",
          "type": "uint256"
        }
      ],
      "stateMutability": "view",
      "type": "function"
    },
    {
      "inputs": [
        {
          "internalType": "address",
          "name": "newImplementation",
          "type": "address"
        }
      ],
      "name": "upgradeTo",
      "outputs": [],
      "stateMutability": "nonpayable",
      "type": "function"
    },
    {
      "inputs": [
        {
          "internalType": "address",
          "name": "newImplementation",
          "type": "address"
        },
        {
          "internalType": "bytes",
          "name": "data",
          "type": "bytes"
        }
      ],
      "name": "upgradeToAndCall",
      "outputs": [],
      "stateMutability": "payable",
      "type": "function"
    },
    {
      "inputs": [
        {
          "internalType": "uint256",
          "name": "amount",
          "type": "uint256"
        }
      ],
      "name": "withdrawANM",
      "outputs": [],
      "stateMutability": "nonpayable",
      "type": "function"
    }
  ],
  "bytecode": "0x60a060405230608052348015601357600080fd5b50608051612dda61004b60003960008181610b5501528181610b9501528181610c8a01528181610cca0152610d590152612dda6000f3fe60806040526004361061023b5760003560e01c80636ddd7b951161012e578063a7456dce116100ab578063d28f08071161006f578063d28f0807146107dd578063f23a6e61146107fd578063f243e4151461082a578063f2fde38b1461083f578063f377fe591461085f57600080fd5b8063a7456dce146106f0578063abb5593614610710578063afb9fbe614610730578063bc197c811461078e578063cc2a9a5b146107bd57600080fd5b8063836fd283116100f2578063836fd283146106425780638981ede5146106705780638da5cb5b146106915780639e447fc6146106af578063a1b19a3b146106cf57600080fd5b80636ddd7b95146105bf578063715018a6146105d657806377d88c08146105eb57806377e88e5e1461060b5780637b0a47ee1461062b57600080fd5b80634f1ef286116101bc5780635a3b149f116101805780635a3b149f1461046a5780635cc2440d146104a35780635f2d6bcd146104f6578063625919321461051657806366079b5d1461053657600080fd5b80634f1ef286146103d457806352d1902d146103e7578063535cdb281461040a57806357551cc11461042a578063597306d71461044a57600080fd5b8063296d0bce11610203578063296d0bce1461033457806331a8038f146103545780633659cfe6146103745780633860d9181461039457806338a98adc146103b457600080fd5b806301ffc9a7146102405780630317432314610275578063055afc7b14610297578063150b7a02146102b757806325ab433e146102fc575b600080fd5b34801561024c57600080fd5b5061026061025b3660046124af565b61087f565b60405190151581526020015b60405180910390f35b34801561028157600080fd5b506102956102903660046124ee565b6108c5565b005b3480156102a357600080fd5b506102956102b23660046124ee565b6108ef565b3480156102c357600080fd5b506102e36102d2366004612554565b630a85bd0160e11b95945050505050565b6040516001600160e01b0319909116815260200161026c565b34801561030857600080fd5b5060fe5461031c906001600160a01b031681565b6040516001600160a01b03909116815260200161026c565b34801561034057600080fd5b5061029561034f3660046125c7565b6109df565b34801561036057600080fd5b5061029561036f3660046125c7565b610a60565b34801561038057600080fd5b5061029561038f3660046124ee565b610b4b565b3480156103a057600080fd5b5061031c6103af3660046125c7565b610c2a565b3480156103c057600080fd5b506102956103cf3660046124ee565b610c55565b6102956103e2366004612627565b610c80565b3480156103f357600080fd5b506103fc610d4c565b60405190815260200161026c565b34801561041657600080fd5b506102956104253660046124ee565b610dff565b34801561043657600080fd5b506103fc6104453660046125c7565b610e2a565b34801561045657600080fd5b5060ff5461031c906001600160a01b031681565b34801561047657600080fd5b506101035461048b906001600160801b031681565b6040516001600160801b03909116815260200161026c565b3480156104af57600080fd5b506104c36104be3660046126e9565b610e4c565b60405161026c91908151815260208083015190820152604080830151908201526060918201519181019190915260800190565b34801561050257600080fd5b5060fd5461031c906001600160a01b031681565b34801561052257600080fd5b5060fc5461031c906001600160a01b031681565b34801561054257600080fd5b5061058b6105513660046125c7565b61010660205260009081526040902080546001820154600283015460039093015460ff8316936101009093046001600160a01b0316929085565b6040805160ff90961686526001600160a01b039094166020860152928401919091526060830152608082015260a00161026c565b3480156105cb57600080fd5b506103fc6101055481565b3480156105e257600080fd5b50610295610eca565b3480156105f757600080fd5b50610295610606366004612714565b610ede565b34801561061757600080fd5b5061029561062636600461274d565b610f5c565b34801561063757600080fd5b506103fc6101045481565b34801561064e57600080fd5b506103fc61065d3660046125c7565b6101096020526000908152604090205481565b34801561067c57600080fd5b506101005461031c906001600160a01b031681565b34801561069d57600080fd5b506097546001600160a01b031661031c565b3480156106bb57600080fd5b506102956106ca3660046125c7565b6113a5565b3480156106db57600080fd5b506101015461031c906001600160a01b031681565b3480156106fc57600080fd5b5060fb5461031c906001600160a01b031681565b34801561071c57600080fd5b5061029561072b3660046125c7565b6113fd565b34801561073c57600080fd5b5061077161074b3660046126e9565b6101076020526000908152604090208054600282015460039092015460ff909116919083565b60408051931515845260208401929092529082015260600161026c565b34801561079a57600080fd5b506102e36107a93660046127e2565b63bc197c8160e01b98975050505050505050565b3480156107c957600080fd5b506102956107d83660046128ad565b61171e565b3480156107e957600080fd5b506102956107f83660046124ee565b6118c7565b34801561080957600080fd5b506102e361081836600461292f565b63f23a6e6160e01b9695505050505050565b34801561083657600080fd5b506102956118f1565b34801561084b57600080fd5b5061029561085a3660046124ee565b611906565b34801561086b57600080fd5b5061029561087a3660046125c7565b61197c565b60006001600160e01b03198216630a85bd0160e11b14806108b057506001600160e01b03198216633bf4472f60e11b145b806108bf57506108bf82611f4d565b92915050565b6108cd611f82565b60ff80546001600160a01b0319166001600160a01b0392909216919091179055565b6108f7611f82565b60005b6101025481101561098b57816001600160a01b03166101028281548110610923576109236129ab565b6000918252602090912001546001600160a01b0316036109835760405162461bcd60e51b8152602060048201526016602482015275131a5cdd195b995c88185b1c9958591e48185919195960521b60448201526064015b60405180910390fd5b6001016108fa565b5061010280546001810182556000919091527f93bdaa6a4190909b7c3fbe8d42169ffe1cab19f51dfc8db24c71abf849eced4a0180546001600160a01b0319166001600160a01b0392909216919091179055565b6109e7611f82565b60fc5460405163a9059cbb60e01b8152336004820152602481018390526001600160a01b039091169063a9059cbb906044016020604051808303816000875af1158015610a38573d6000803e3d6000fd5b505050506040513d601f19601f82011682018060405250810190610a5c91906129c1565b5050565b6000805b6101085481108015610a7557508282105b15610b465760006101088281548110610a9057610a906129ab565b600091825260208220015460fb5460405163089935e560e31b8152600481018390529193506001600160a01b0316906344c9af289060240160c060405180830381865afa158015610ae5573d6000803e3d6000fd5b505050506040513d601f19601f82011682018060405250810190610b0991906129de565b905042816080015111610b3157610b1f8261197c565b83610b2981612a85565b945050610b3f565b82610b3b81612a85565b9350505b5050610a64565b505050565b6001600160a01b037f0000000000000000000000000000000000000000000000000000000000000000163003610b935760405162461bcd60e51b815260040161097a90612a9e565b7f00000000000000000000000000000000000000000000000000000000000000006001600160a01b0316610bdc600080516020612d5e833981519152546001600160a01b031690565b6001600160a01b031614610c025760405162461bcd60e51b815260040161097a90612aea565b610c0b81611fdc565b60408051600080825260208201909252610c2791839190611fe4565b50565b6101028181548110610c3b57600080fd5b6000918252602090912001546001600160a01b0316905081565b610c5d611f82565b61010180546001600160a01b0319166001600160a01b0392909216919091179055565b6001600160a01b037f0000000000000000000000000000000000000000000000000000000000000000163003610cc85760405162461bcd60e51b815260040161097a90612a9e565b7f00000000000000000000000000000000000000000000000000000000000000006001600160a01b0316610d11600080516020612d5e833981519152546001600160a01b031690565b6001600160a01b031614610d375760405162461bcd60e51b815260040161097a90612aea565b610d4082611fdc565b610a5c82826001611fe4565b6000306001600160a01b037f00000000000000000000000000000000000000000000000000000000000000001614610dec5760405162461bcd60e51b815260206004820152603860248201527f555550535570677261646561626c653a206d757374206e6f742062652063616c60448201527f6c6564207468726f7567682064656c656761746563616c6c0000000000000000606482015260840161097a565b50600080516020612d5e83398151915290565b610e07611f82565b61010080546001600160a01b0319166001600160a01b0392909216919091179055565b6101088181548110610e3b57600080fd5b600091825260209091200154905081565b610e776040518060800160405280600081526020016000815260200160008152602001600081525090565b50604080516080810182526101045481526001600160801b039092166000818152610107602081815284832060028101548288015260038101549587019590955292909152905260010154606082015290565b610ed2611f82565b610edc600061214f565b565b610100546001600160a01b031615610a5c576101005460405163ab01b46960e01b81526001600160a01b03848116600483015283151560248301529091169063ab01b46990604401600060405180830381600087803b158015610f4057600080fd5b505af1158015610f54573d6000803e3d6000fd5b505050505050565b610100546001600160a01b03161580610fdd5750610100546040516335f206d960e21b81523360048201526001600160a01b039091169063d7c81b6490602401602060405180830381865afa158015610fb9573d6000803e3d6000fd5b505050506040513d601f19601f82011682018060405250810190610fdd91906129c1565b61103f5760405162461bcd60e51b815260206004820152602d60248201527f4465636f6d706f73655265776172644469737472696275746f723a205065726d60448201526c1a5cdcda5bdb8819195b9a5959609a1b606482015260840161097a565b60fd546040516331a9108f60e11b8152600481018590526000916001600160a01b031690636352211e90602401602060405180830381865afa158015611089573d6000803e3d6000fd5b505050506040513d601f19601f820116820180604052508101906110ad9190612b36565b60fd546040516323b872dd60e01b81526001600160a01b038084166004830152306024830152604482018890529293509116906323b872dd90606401600060405180830381600087803b15801561110357600080fd5b505af1158015611117573d6000803e3d6000fd5b505060fd5460fb5460405163095ea7b360e01b81526001600160a01b039182166004820152602481018990529116925063095ea7b39150604401600060405180830381600087803b15801561116b57600080fd5b505af115801561117f573d6000803e3d6000fd5b505060fb54604051635c2bd61960e11b815260048101889052600093506001600160a01b03909116915063b857ac32906024016020604051808303816000875af11580156111d1573d6000803e3d6000fd5b505050506040513d601f19601f820116820180604052508101906111f59190612b53565b90508260ff1660000361126a57610101546040516317a35d8160e11b8152600481018790526001600160a01b03888116602483015290911690632f46bb0290604401600060405180830381600087803b15801561125157600080fd5b505af1158015611265573d6000803e3d6000fd5b505050505b6040805160a08101825260ff80861682526001600160a01b03808a1660208085019182528486018b815260608601888152608087018c815260008e8152610106909452978320965187549451909516610100026001600160a81b03199094169490951693909317919091178455905160018085019190915591516002840155925160039092019190915561010880548083018255928190527f8543e9adbfbe1f62b7411fdf032fcfea758a7d6b332f64d971a1334c2ff364dd90920183905590546113359190612b6c565b61010960008381526020019081526020016000208190555084866001600160a01b03167f3686ea70fe12c1c7f2403720dc37ae0527c801f01bae0ef4d188e482f58d6f1b838660405161139592919091825260ff16602082015260400190565b60405180910390a3505050505050565b6113ad611f82565b6127108111156113f75760405162461bcd60e51b8152602060048201526015602482015274052617465206d757374206265203c3d20313030303605c1b604482015260640161097a565b61010455565b60ff54610103546040516302169fbb60e41b81526001600160801b039091166004820152600091829182916001600160a01b031690632169fbb09060240161010060405180830381865afa158015611459573d6000803e3d6000fd5b505050506040513d601f19601f8201168201806040525081019061147d9190612b7f565b50509550955095505050508181146114e65760405162461bcd60e51b815260206004820152602660248201527f446973747269627574696f6e206e6f7420636f6d706c6574656420666f72207460448201526568652064617960d01b606482015260840161097a565b610103546001600160801b03166000908152610107602052604090206003810154610105546001830190861580159061151f5750600083115b156116b8576000612710610104548987600201548a61153e9190612c12565b6115489190612c29565b6115529190612c12565b61155c9190612c29565b905060005b89811080156115705750835483105b156116af576000848481548110611589576115896129ab565b60009182526020808320909101546001600160a01b031680835260048a01909152604082205490925090876115be8387612c12565b6115c89190612c29565b9050801561168c5760fc5460405163a9059cbb60e01b81526001600160a01b038581166004830152602482018490529091169063a9059cbb906044016020604051808303816000875af1158015611623573d6000803e3d6000fd5b505050506040513d601f19601f8201168201806040525081019061164791906129c1565b50826001600160a01b03167fbd969fa1c51fa0642f08fe74ad5cd2372a4e6f5edc55ebaea3ce28088b12848a8260405161168391815260200190565b60405180910390a25b8561169681612a85565b96505050505080806116a790612a85565b915050611561565b50506101058190555b8154811061171457835460ff1916600117845561010380546001600160801b03169060006116e583612c4b565b91906101000a8154816001600160801b0302191690836001600160801b03160217905550506000610105819055505b5050505050505050565b600054610100900460ff161580801561173e5750600054600160ff909116105b806117585750303b158015611758575060005460ff166001145b6117bb5760405162461bcd60e51b815260206004820152602e60248201527f496e697469616c697a61626c653a20636f6e747261637420697320616c72656160448201526d191e481a5b9a5d1a585b1a5e995960921b606482015260840161097a565b6000805460ff1916600117905580156117de576000805461ff0019166101001790555b6117e66121a1565b6117ee6121c8565b60fb80546001600160a01b03808a166001600160a01b03199283161790925560fc805489841690831617905560fd805488841690831617905560fe805487841690831617905560ff80548684169083161790556101018054928516929091169190911790556127106101045561010380546fffffffffffffffffffffffffffffffff1916614dff17905580156118be576000805461ff0019169055604051600181527f7f26b83ff96e1f2b6a682f133852f6798a09c465da95921460cefb38474024989060200160405180910390a15b50505050505050565b6118cf611f82565b60fb80546001600160a01b0319166001600160a01b0392909216919091179055565b6118f9611f82565b610edc610102600061247d565b61190e611f82565b6001600160a01b0381166119735760405162461bcd60e51b815260206004820152602660248201527f4f776e61626c653a206e6577206f776e657220697320746865207a65726f206160448201526564647265737360d01b606482015260840161097a565b610c278161214f565b60fb5460405163089935e560e31b8152600481018390526000916001600160a01b0316906344c9af289060240160c060405180830381865afa1580156119c6573d6000803e3d6000fd5b505050506040513d601f19601f820116820180604052508101906119ea91906129de565b90504281608001511115611a405760405162461bcd60e51b815260206004820152601f60248201527f4465636f6d706f736974696f6e206e6f7420636f6d706c657465642079657400604482015260640161097a565b6040818101516000818152610106602090815290839020835160a081018552815460ff8116825261010090046001600160a01b039081169382019390935260018201548186015260028201546060820152600390910154608082015260fb54935163080f2b3360e11b8152600481018790529293909291169063101e566690602401600060405180830381600087803b158015611adc57600080fd5b505af1158015611af0573d6000803e3d6000fd5b505050506000816000015160ff16600003611b76576101015460405162394d7d60e01b8152600481018590526001600160a01b039091169062394d7d90602401602060405180830381865afa158015611b4d573d6000803e3d6000fd5b505050506040513d601f19601f82011682018060405250810190611b719190612b36565b611b7c565b81602001515b60fe54604051627eeac760e11b81523060048201819052602482018790529293506001600160a01b039091169163f242432a9184908790859062fdd58e90604401602060405180830381865afa158015611bda573d6000803e3d6000fd5b505050506040513d601f19601f82011682018060405250810190611bfe9190612b53565b6040516001600160e01b031960e087901b1681526001600160a01b0394851660048201529390921660248401526044830152606482015260a06084820152600060a482015260c401600060405180830381600087803b158015611c6057600080fd5b505af1158015611c74573d6000803e3d6000fd5b5050505060006201518042611c899190612c29565b6001600160801b038116600090815261010760205260408120600281018054939450909291611cb783612a85565b90915550506020808501516001600160a01b031660009081526004830190915260408120549003611d1e5760208481015160018381018054918201815560009081529290922090910180546001600160a01b0319166001600160a01b039092169190911790555b60808401516020808601516001600160a01b0316600090815260048401909152604081208054909190611d52908490612c76565b90915550506080840151600382018054600090611d70908490612c76565b90915550600090505b61010254811015611e17576101028181548110611d9857611d986129ab565b60009182526020918290200154908601516040516327b0240b60e21b8152600481018990526001600160a01b039182166024820152911690639ec0902c90604401600060405180830381600087803b158015611df357600080fd5b505af1158015611e07573d6000803e3d6000fd5b505060019092019150611d799050565b506000878152610109602052604090205461010854611e3890600190612b6c565b8114611ea657610108805460009190611e5390600190612b6c565b81548110611e6357611e636129ab565b90600052602060002001549050806101088381548110611e8557611e856129ab565b60009182526020808320909101929092559182526101099052604090208190555b610108805480611eb857611eb8612c89565b60019003818190600052602060002001600090559055610109600089815260200190815260200160002060009055826001600160801b03168686602001516001600160a01b03167fb620f473c4d475c0c4ae8dcfe80bff5348a96e8fe86e433f3807409ce2c8a7428860000151604051611f3b919060ff91909116815260200190565b60405180910390a45050505050505050565b60006001600160e01b03198216630271189760e51b14806108bf57506301ffc9a760e01b6001600160e01b03198316146108bf565b6097546001600160a01b03163314610edc5760405162461bcd60e51b815260206004820181905260248201527f4f776e61626c653a2063616c6c6572206973206e6f7420746865206f776e6572604482015260640161097a565b610c27611f82565b7f4910fdfa16fed3260ed0e7147f7cc6da11a60208b5b9406d12a635614ffd91435460ff161561201757610b46836121f7565b826001600160a01b03166352d1902d6040518163ffffffff1660e01b8152600401602060405180830381865afa925050508015612071575060408051601f3d908101601f1916820190925261206e91810190612b53565b60015b6120d45760405162461bcd60e51b815260206004820152602e60248201527f45524331393637557067726164653a206e657720696d706c656d656e7461746960448201526d6f6e206973206e6f74205555505360901b606482015260840161097a565b600080516020612d5e83398151915281146121435760405162461bcd60e51b815260206004820152602960248201527f45524331393637557067726164653a20756e737570706f727465642070726f786044820152681a58589b195555525160ba1b606482015260840161097a565b50610b46838383612293565b609780546001600160a01b038381166001600160a01b0319831681179093556040519116919082907f8be0079c531659141344cd1fd0a4f28419497f9722a3daafe3b4186f6b6457e090600090a35050565b600054610100900460ff16610edc5760405162461bcd60e51b815260040161097a90612c9f565b600054610100900460ff166121ef5760405162461bcd60e51b815260040161097a90612c9f565b610edc6122be565b6001600160a01b0381163b6122645760405162461bcd60e51b815260206004820152602d60248201527f455243313936373a206e657720696d706c656d656e746174696f6e206973206e60448201526c1bdd08184818dbdb9d1c9858dd609a1b606482015260840161097a565b600080516020612d5e83398151915280546001600160a01b0319166001600160a01b0392909216919091179055565b61229c836122ee565b6000825111806122a95750805b15610b46576122b8838361232e565b50505050565b600054610100900460ff166122e55760405162461bcd60e51b815260040161097a90612c9f565b610edc3361214f565b6122f7816121f7565b6040516001600160a01b038216907fbc7cd75a20ee27fd9adebab32041f755214dbc6bffa90cc0225b39da2e5c2d3b90600090a250565b60606123538383604051806060016040528060278152602001612d7e6027913961235a565b9392505050565b6060600080856001600160a01b0316856040516123779190612d0e565b600060405180830381855af49150503d80600081146123b2576040519150601f19603f3d011682016040523d82523d6000602084013e6123b7565b606091505b50915091506123c8868383876123d2565b9695505050505050565b6060831561244157825160000361243a576001600160a01b0385163b61243a5760405162461bcd60e51b815260206004820152601d60248201527f416464726573733a2063616c6c20746f206e6f6e2d636f6e7472616374000000604482015260640161097a565b508161244b565b61244b8383612453565b949350505050565b8151156124635781518083602001fd5b8060405162461bcd60e51b815260040161097a9190612d2a565b5080546000825590600052602060002090810190610c2791905b808211156124ab5760008155600101612497565b5090565b6000602082840312156124c157600080fd5b81356001600160e01b03198116811461235357600080fd5b6001600160a01b0381168114610c2757600080fd5b60006020828403121561250057600080fd5b8135612353816124d9565b60008083601f84011261251d57600080fd5b50813567ffffffffffffffff81111561253557600080fd5b60208301915083602082850101111561254d57600080fd5b9250929050565b60008060008060006080868803121561256c57600080fd5b8535612577816124d9565b94506020860135612587816124d9565b935060408601359250606086013567ffffffffffffffff8111156125aa57600080fd5b6125b68882890161250b565b969995985093965092949392505050565b6000602082840312156125d957600080fd5b5035919050565b634e487b7160e01b600052604160045260246000fd5b604051601f8201601f1916810167ffffffffffffffff8111828210171561261f5761261f6125e0565b604052919050565b6000806040838503121561263a57600080fd5b8235612645816124d9565b9150602083013567ffffffffffffffff81111561266157600080fd5b8301601f8101851361267257600080fd5b803567ffffffffffffffff81111561268c5761268c6125e0565b61269f601f8201601f19166020016125f6565b8181528660208385010111156126b457600080fd5b816020840160208301376000602083830101528093505050509250929050565b6001600160801b0381168114610c2757600080fd5b6000602082840312156126fb57600080fd5b8135612353816126d4565b8015158114610c2757600080fd5b6000806040838503121561272757600080fd5b8235612732816124d9565b9150602083013561274281612706565b809150509250929050565b6000806000806080858703121561276357600080fd5b843561276e816124d9565b93506020850135925060408501359150606085013560ff8116811461279257600080fd5b939692955090935050565b60008083601f8401126127af57600080fd5b50813567ffffffffffffffff8111156127c757600080fd5b6020830191508360208260051b850101111561254d57600080fd5b60008060008060008060008060a0898b0312156127fe57600080fd5b8835612809816124d9565b97506020890135612819816124d9565b9650604089013567ffffffffffffffff81111561283557600080fd5b6128418b828c0161279d565b909750955050606089013567ffffffffffffffff81111561286157600080fd5b61286d8b828c0161279d565b909550935050608089013567ffffffffffffffff81111561288d57600080fd5b6128998b828c0161250b565b999c989b5096995094979396929594505050565b60008060008060008060c087890312156128c657600080fd5b86356128d1816124d9565b955060208701356128e1816124d9565b945060408701356128f1816124d9565b93506060870135612901816124d9565b92506080870135612911816124d9565b915060a0870135612921816124d9565b809150509295509295509295565b60008060008060008060a0878903121561294857600080fd5b8635612953816124d9565b95506020870135612963816124d9565b94506040870135935060608701359250608087013567ffffffffffffffff81111561298d57600080fd5b61299989828a0161250b565b979a9699509497509295939492505050565b634e487b7160e01b600052603260045260246000fd5b6000602082840312156129d357600080fd5b815161235381612706565b600060c08284031280156129f157600080fd5b5060405160009060c0810167ffffffffffffffff81118282101715612a1857612a186125e0565b604052835181526020840151612a2d816124d9565b602082015260408481015190820152606080850151908201526080808501519082015260a08401519150612a6082612706565b60a08101919091529392505050565b634e487b7160e01b600052601160045260246000fd5b600060018201612a9757612a97612a6f565b5060010190565b6020808252602c908201527f46756e6374696f6e206d7573742062652063616c6c6564207468726f7567682060408201526b19195b1959d85d1958d85b1b60a21b606082015260800190565b6020808252602c908201527f46756e6374696f6e206d7573742062652063616c6c6564207468726f7567682060408201526b6163746976652070726f787960a01b606082015260800190565b600060208284031215612b4857600080fd5b8151612353816124d9565b600060208284031215612b6557600080fd5b5051919050565b818103818111156108bf576108bf612a6f565b600080600080600080600080610100898b031215612b9c57600080fd5b8851612ba7816126d4565b60208a015190985067ffffffffffffffff81168114612bc557600080fd5b60408a015190975063ffffffff81168114612bdf57600080fd5b60608a015160808b015160a08c015160c08d015160e0909d01519b9e9a9d50929b919a9099929850909650945092505050565b80820281158282048414176108bf576108bf612a6f565b600082612c4657634e487b7160e01b600052601260045260246000fd5b500490565b60006001600160801b0382166001600160801b038103612c6d57612c6d612a6f565b60010192915050565b808201808211156108bf576108bf612a6f565b634e487b7160e01b600052603160045260246000fd5b6020808252602b908201527f496e697469616c697a61626c653a20636f6e7472616374206973206e6f74206960408201526a6e697469616c697a696e6760a81b606082015260800190565b60005b83811015612d05578181015183820152602001612ced565b50506000910152565b60008251612d20818460208701612cea565b9190910192915050565b6020815260008251806020840152612d49816040850160208701612cea565b601f01601f1916919091016040019291505056fe360894a13ba1a3210667c828492db98dca3e2076cc3735a920a3ca505d382bbc416464726573733a206c6f772d6c6576656c2064656c65676174652063616c6c206661696c6564a2646970667358221220a2eab0ee8acb4442a91d35dead815580c27bb22113f2cf52da2b4ea6c0d4c3c764736f6c634300081b0033",
  "linkReferences": {},
  "deployedLinkReferences": {}
}