{
  "_format": "hh-sol-artifact-1",
  "contractName": "PurchaseBudgetManager",
  "sourceName": "contracts/PurchaseBudgetManager.sol",
  "abi": [
    {
      "anonymous": false,
      "inputs": [
        {
          "indexed": false,
          "internalType": "address",
          "name": "previousAdmin",
          "type": "address"
        },
        {
          "indexed": false,
          "internalType": "address",
          "name": "newAdmin",
          "type": "address"
        }
      ],
      "name": "AdminChanged",
      "type": "event"
    },
    {
      "anonymous": false,
      "inputs": [
        {
          "indexed": true,
          "internalType": "address",
          "name": "beacon",
          "type": "address"
        }
      ],
      "name": "BeaconUpgraded",
      "type": "event"
    },
    {
      "anonymous": false,
      "inputs": [
        {
          "indexed": true,
          "internalType": "address",
          "name": "budgetProvider",
          "type": "address"
        },
        {
          "indexed": false,
          "internalType": "uint256",
          "name": "amount",
          "type": "uint256"
        }
      ],
      "name": "BudgetIncreased",
      "type": "event"
    },
    {
      "anonymous": false,
      "inputs": [
        {
          "indexed": true,
          "internalType": "uint256",
          "name": "tokenId",
          "type": "uint256"
        },
        {
          "indexed": true,
          "internalType": "address",
          "name": "budgetProvider",
          "type": "address"
        },
        {
          "indexed": true,
          "internalType": "address",
          "name": "payTo",
          "type": "address"
        },
        {
          "indexed": false,
          "internalType": "uint256",
          "name": "amount",
          "type": "uint256"
        }
      ],
      "name": "BudgetPaid",
      "type": "event"
    },
    {
      "anonymous": false,
      "inputs": [
        {
          "indexed": true,
          "internalType": "address",
          "name": "budgetProvider",
          "type": "address"
        },
        {
          "indexed": false,
          "internalType": "uint256",
          "name": "amount",
          "type": "uint256"
        }
      ],
      "name": "BudgetWithdrawn",
      "type": "event"
    },
    {
      "anonymous": false,
      "inputs": [
        {
          "indexed": false,
          "internalType": "uint8",
          "name": "version",
          "type": "uint8"
        }
      ],
      "name": "Initialized",
      "type": "event"
    },
    {
      "anonymous": false,
      "inputs": [
        {
          "indexed": true,
          "internalType": "address",
          "name": "previousOwner",
          "type": "address"
        },
        {
          "indexed": true,
          "internalType": "address",
          "name": "newOwner",
          "type": "address"
        }
      ],
      "name": "OwnershipTransferred",
      "type": "event"
    },
    {
      "anonymous": false,
      "inputs": [
        {
          "indexed": true,
          "internalType": "uint256",
          "name": "tokenId",
          "type": "uint256"
        },
        {
          "indexed": false,
          "internalType": "address",
          "name": "budgetProvider",
          "type": "address"
        },
        {
          "indexed": false,
          "internalType": "uint256",
          "name": "amount",
          "type": "uint256"
        }
      ],
      "name": "SetBudget",
      "type": "event"
    },
    {
      "anonymous": false,
      "inputs": [
        {
          "indexed": true,
          "internalType": "address",
          "name": "implementation",
          "type": "address"
        }
      ],
      "name": "Upgraded",
      "type": "event"
    },
    {
      "inputs": [
        {
          "internalType": "address",
          "name": "_address",
          "type": "address"
        }
      ],
      "name": "addBudgetProvider",
      "outputs": [],
      "stateMutability": "nonpayable",
      "type": "function"
    },
    {
      "inputs": [],
      "name": "animaToken",
      "outputs": [
        {
          "internalType": "contract IERC20",
          "name": "",
          "type": "address"
        }
      ],
      "stateMutability": "view",
      "type": "function"
    },
    {
      "inputs": [],
      "name": "auctionContract",
      "outputs": [
        {
          "internalType": "contract IERC721Auction",
          "name": "",
          "type": "address"
        }
      ],
      "stateMutability": "view",
      "type": "function"
    },
    {
      "inputs": [
        {
          "internalType": "address",
          "name": "",
          "type": "address"
        },
        {
          "internalType": "uint256",
          "name": "",
          "type": "uint256"
        }
      ],
      "name": "budgetProviderToBudgetIndexes",
      "outputs": [
        {
          "internalType": "uint256",
          "name": "",
          "type": "uint256"
        }
      ],
      "stateMutability": "view",
      "type": "function"
    },
    {
      "inputs": [
        {
          "internalType": "uint256",
          "name": "",
          "type": "uint256"
        }
      ],
      "name": "budgets",
      "outputs": [
        {
          "internalType": "address",
          "name": "paid",
          "type": "address"
        },
        {
          "internalType": "bool",
          "name": "tokenBurned",
          "type": "bool"
        },
        {
          "internalType": "address",
          "name": "budgetProvider",
          "type": "address"
        },
        {
          "internalType": "uint256",
          "name": "tokenId",
          "type": "uint256"
        },
        {
          "internalType": "uint256",
          "name": "animaAmount",
          "type": "uint256"
        },
        {
          "internalType": "uint256",
          "name": "levicaAmount",
          "type": "uint256"
        },
        {
          "internalType": "uint256",
          "name": "paidTimestamp",
          "type": "uint256"
        },
        {
          "internalType": "address",
          "name": "tokenReceiverAddress",
          "type": "address"
        },
        {
          "internalType": "address",
          "name": "publisherAddress",
          "type": "address"
        }
      ],
      "stateMutability": "view",
      "type": "function"
    },
    {
      "inputs": [
        {
          "internalType": "address",
          "name": "provider",
          "type": "address"
        }
      ],
      "name": "countAuctionByBudgetProvider",
      "outputs": [
        {
          "internalType": "uint256",
          "name": "",
          "type": "uint256"
        }
      ],
      "stateMutability": "view",
      "type": "function"
    },
    {
      "inputs": [
        {
          "internalType": "address",
          "name": "publisher",
          "type": "address"
        }
      ],
      "name": "countAuctionByPublisher",
      "outputs": [
        {
          "internalType": "uint256",
          "name": "",
          "type": "uint256"
        }
      ],
      "stateMutability": "view",
      "type": "function"
    },
    {
      "inputs": [
        {
          "internalType": "address",
          "name": "winner",
          "type": "address"
        }
      ],
      "name": "countAuctionByWinner",
      "outputs": [
        {
          "internalType": "uint256",
          "name": "",
          "type": "uint256"
        }
      ],
      "stateMutability": "view",
      "type": "function"
    },
    {
      "inputs": [
        {
          "internalType": "uint256",
          "name": "",
          "type": "uint256"
        }
      ],
      "name": "deposits",
      "outputs": [
        {
          "internalType": "uint256",
          "name": "key",
          "type": "uint256"
        },
        {
          "internalType": "address",
          "name": "depositor",
          "type": "address"
        },
        {
          "internalType": "uint256",
          "name": "amount",
          "type": "uint256"
        }
      ],
      "stateMutability": "view",
      "type": "function"
    },
    {
      "inputs": [],
      "name": "erc721Contract",
      "outputs": [
        {
          "internalType": "contract IERC721",
          "name": "",
          "type": "address"
        }
      ],
      "stateMutability": "view",
      "type": "function"
    },
    {
      "inputs": [
        {
          "internalType": "uint256",
          "name": "tokenId",
          "type": "uint256"
        }
      ],
      "name": "getBudget",
      "outputs": [
        {
          "components": [
            {
              "internalType": "address",
              "name": "paid",
              "type": "address"
            },
            {
              "internalType": "bool",
              "name": "tokenBurned",
              "type": "bool"
            },
            {
              "internalType": "address",
              "name": "budgetProvider",
              "type": "address"
            },
            {
              "internalType": "uint256",
              "name": "tokenId",
              "type": "uint256"
            },
            {
              "internalType": "uint256",
              "name": "animaAmount",
              "type": "uint256"
            },
            {
              "internalType": "uint256",
              "name": "levicaAmount",
              "type": "uint256"
            },
            {
              "internalType": "uint256",
              "name": "paidTimestamp",
              "type": "uint256"
            },
            {
              "internalType": "address",
              "name": "tokenReceiverAddress",
              "type": "address"
            },
            {
              "internalType": "address",
              "name": "publisherAddress",
              "type": "address"
            }
          ],
          "internalType": "struct IPurchaseBudgetManager.Budget",
          "name": "",
          "type": "tuple"
        }
      ],
      "stateMutability": "view",
      "type": "function"
    },
    {
      "inputs": [
        {
          "internalType": "uint256",
          "name": "tokenId",
          "type": "uint256"
        }
      ],
      "name": "getBudgetProvider",
      "outputs": [
        {
          "internalType": "address",
          "name": "",
          "type": "address"
        }
      ],
      "stateMutability": "view",
      "type": "function"
    },
    {
      "inputs": [
        {
          "internalType": "address",
          "name": "budgetProvider",
          "type": "address"
        }
      ],
      "name": "getDepositAmount",
      "outputs": [
        {
          "internalType": "uint256",
          "name": "",
          "type": "uint256"
        }
      ],
      "stateMutability": "view",
      "type": "function"
    },
    {
      "inputs": [
        {
          "internalType": "uint256",
          "name": "",
          "type": "uint256"
        },
        {
          "internalType": "address",
          "name": "",
          "type": "address"
        }
      ],
      "name": "getExtraDeposit",
      "outputs": [
        {
          "internalType": "uint256",
          "name": "",
          "type": "uint256"
        }
      ],
      "stateMutability": "view",
      "type": "function"
    },
    {
      "inputs": [
        {
          "internalType": "address",
          "name": "_address",
          "type": "address"
        },
        {
          "internalType": "bool",
          "name": "byBudgetProvider",
          "type": "bool"
        }
      ],
      "name": "getRequiredBudget",
      "outputs": [
        {
          "internalType": "uint256",
          "name": "",
          "type": "uint256"
        },
        {
          "internalType": "uint256",
          "name": "",
          "type": "uint256"
        }
      ],
      "stateMutability": "view",
      "type": "function"
    },
    {
      "inputs": [
        {
          "internalType": "address",
          "name": "publisher",
          "type": "address"
        }
      ],
      "name": "getRequiredBudgetAmount",
      "outputs": [
        {
          "internalType": "uint256",
          "name": "",
          "type": "uint256"
        },
        {
          "internalType": "uint256",
          "name": "",
          "type": "uint256"
        },
        {
          "internalType": "uint256",
          "name": "",
          "type": "uint256"
        },
        {
          "internalType": "uint256",
          "name": "",
          "type": "uint256"
        }
      ],
      "stateMutability": "view",
      "type": "function"
    },
    {
      "inputs": [
        {
          "internalType": "address",
          "name": "budgetProvider",
          "type": "address"
        }
      ],
      "name": "getRequiredBudgetAnimaAmount",
      "outputs": [
        {
          "internalType": "uint256",
          "name": "",
          "type": "uint256"
        }
      ],
      "stateMutability": "view",
      "type": "function"
    },
    {
      "inputs": [],
      "name": "getTokenIdToBudgetIndexLength",
      "outputs": [
        {
          "internalType": "uint256",
          "name": "",
          "type": "uint256"
        }
      ],
      "stateMutability": "view",
      "type": "function"
    },
    {
      "inputs": [
        {
          "internalType": "uint256",
          "name": "tokenId",
          "type": "uint256"
        }
      ],
      "name": "getTokenReceiverAddress",
      "outputs": [
        {
          "internalType": "address",
          "name": "",
          "type": "address"
        }
      ],
      "stateMutability": "view",
      "type": "function"
    },
    {
      "inputs": [
        {
          "internalType": "uint256",
          "name": "amount",
          "type": "uint256"
        }
      ],
      "name": "increaseBudget",
      "outputs": [],
      "stateMutability": "nonpayable",
      "type": "function"
    },
    {
      "inputs": [
        {
          "internalType": "address",
          "name": "_animaTokenAddress",
          "type": "address"
        },
        {
          "internalType": "address",
          "name": "_roleManagerAddress",
          "type": "address"
        },
        {
          "internalType": "address",
          "name": "_auctionContractAddress",
          "type": "address"
        },
        {
          "internalType": "address",
          "name": "_erc721ContractAddress",
          "type": "address"
        }
      ],
      "name": "initialize",
      "outputs": [],
      "stateMutability": "nonpayable",
      "type": "function"
    },
    {
      "inputs": [
        {
          "internalType": "uint256",
          "name": "",
          "type": "uint256"
        },
        {
          "internalType": "uint256",
          "name": "",
          "type": "uint256"
        }
      ],
      "name": "key2deposits",
      "outputs": [
        {
          "internalType": "uint256",
          "name": "",
          "type": "uint256"
        }
      ],
      "stateMutability": "view",
      "type": "function"
    },
    {
      "inputs": [
        {
          "internalType": "uint256",
          "name": "",
          "type": "uint256"
        }
      ],
      "name": "key2maxDeposit",
      "outputs": [
        {
          "internalType": "uint256",
          "name": "",
          "type": "uint256"
        }
      ],
      "stateMutability": "view",
      "type": "function"
    },
    {
      "inputs": [
        {
          "internalType": "uint256",
          "name": "",
          "type": "uint256"
        },
        {
          "internalType": "address",
          "name": "",
          "type": "address"
        }
      ],
      "name": "keyDepositor2deposits",
      "outputs": [
        {
          "internalType": "uint256",
          "name": "",
          "type": "uint256"
        }
      ],
      "stateMutability": "view",
      "type": "function"
    },
    {
      "inputs": [
        {
          "internalType": "uint256",
          "name": "key",
          "type": "uint256"
        },
        {
          "internalType": "uint256",
          "name": "startIdx",
          "type": "uint256"
        },
        {
          "internalType": "uint256",
          "name": "limit",
          "type": "uint256"
        }
      ],
      "name": "listDepositsByKey",
      "outputs": [
        {
          "components": [
            {
              "internalType": "uint256",
              "name": "key",
              "type": "uint256"
            },
            {
              "internalType": "address",
              "name": "depositor",
              "type": "address"
            },
            {
              "internalType": "uint256",
              "name": "amount",
              "type": "uint256"
            }
          ],
          "internalType": "struct IAnimaDepositManager.DepositInfo[]",
          "name": "",
          "type": "tuple[]"
        }
      ],
      "stateMutability": "view",
      "type": "function"
    },
    {
      "inputs": [
        {
          "internalType": "uint256",
          "name": "key",
          "type": "uint256"
        }
      ],
      "name": "maxDepositByKey",
      "outputs": [
        {
          "internalType": "uint256",
          "name": "depositId",
          "type": "uint256"
        }
      ],
      "stateMutability": "view",
      "type": "function"
    },
    {
      "inputs": [],
      "name": "numDeposits",
      "outputs": [
        {
          "internalType": "uint256",
          "name": "",
          "type": "uint256"
        }
      ],
      "stateMutability": "view",
      "type": "function"
    },
    {
      "inputs": [
        {
          "internalType": "uint256",
          "name": "key",
          "type": "uint256"
        }
      ],
      "name": "numDepositsByKey",
      "outputs": [
        {
          "internalType": "uint256",
          "name": "",
          "type": "uint256"
        }
      ],
      "stateMutability": "view",
      "type": "function"
    },
    {
      "inputs": [],
      "name": "owner",
      "outputs": [
        {
          "internalType": "address",
          "name": "",
          "type": "address"
        }
      ],
      "stateMutability": "view",
      "type": "function"
    },
    {
      "inputs": [
        {
          "internalType": "uint256",
          "name": "tokenId",
          "type": "uint256"
        },
        {
          "internalType": "address",
          "name": "payTo",
          "type": "address"
        }
      ],
      "name": "payBudgetTo",
      "outputs": [],
      "stateMutability": "nonpayable",
      "type": "function"
    },
    {
      "inputs": [],
      "name": "proxiableUUID",
      "outputs": [
        {
          "internalType": "bytes32",
          "name": "",
          "type": "bytes32"
        }
      ],
      "stateMutability": "view",
      "type": "function"
    },
    {
      "inputs": [
        {
          "internalType": "address",
          "name": "",
          "type": "address"
        },
        {
          "internalType": "uint256",
          "name": "",
          "type": "uint256"
        }
      ],
      "name": "publisherToBudgetIndexes",
      "outputs": [
        {
          "internalType": "uint256",
          "name": "",
          "type": "uint256"
        }
      ],
      "stateMutability": "view",
      "type": "function"
    },
    {
      "inputs": [],
      "name": "renounceOwnership",
      "outputs": [],
      "stateMutability": "nonpayable",
      "type": "function"
    },
    {
      "inputs": [
        {
          "internalType": "address",
          "name": "",
          "type": "address"
        }
      ],
      "name": "requiredBudgetByProvider",
      "outputs": [
        {
          "internalType": "uint256",
          "name": "amountAnima",
          "type": "uint256"
        },
        {
          "internalType": "uint256",
          "name": "amountLevica",
          "type": "uint256"
        }
      ],
      "stateMutability": "view",
      "type": "function"
    },
    {
      "inputs": [
        {
          "internalType": "address",
          "name": "",
          "type": "address"
        }
      ],
      "name": "requiredBudgetByPublisher",
      "outputs": [
        {
          "internalType": "uint256",
          "name": "amountAnima",
          "type": "uint256"
        },
        {
          "internalType": "uint256",
          "name": "amountLevica",
          "type": "uint256"
        }
      ],
      "stateMutability": "view",
      "type": "function"
    },
    {
      "inputs": [],
      "name": "roleManager",
      "outputs": [
        {
          "internalType": "contract RoleManager",
          "name": "",
          "type": "address"
        }
      ],
      "stateMutability": "view",
      "type": "function"
    },
    {
      "inputs": [
        {
          "internalType": "address",
          "name": "_auctionContractAddress",
          "type": "address"
        }
      ],
      "name": "setAuctionContract",
      "outputs": [],
      "stateMutability": "nonpayable",
      "type": "function"
    },
    {
      "inputs": [
        {
          "internalType": "uint256",
          "name": "tokenId",
          "type": "uint256"
        },
        {
          "internalType": "uint256",
          "name": "animaAmount",
          "type": "uint256"
        },
        {
          "internalType": "uint256",
          "name": "levicaAmount",
          "type": "uint256"
        },
        {
          "internalType": "address",
          "name": "tokenReceiverAddress",
          "type": "address"
        },
        {
          "internalType": "address",
          "name": "publisherAddress",
          "type": "address"
        }
      ],
      "name": "setBudget",
      "outputs": [],
      "stateMutability": "nonpayable",
      "type": "function"
    },
    {
      "inputs": [
        {
          "internalType": "address",
          "name": "_roleManagerAddress",
          "type": "address"
        }
      ],
      "name": "setRoleManager",
      "outputs": [],
      "stateMutability": "nonpayable",
      "type": "function"
    },
    {
      "inputs": [
        {
          "internalType": "address",
          "name": "provider",
          "type": "address"
        },
        {
          "internalType": "uint256",
          "name": "ofs",
          "type": "uint256"
        },
        {
          "internalType": "uint256",
          "name": "count",
          "type": "uint256"
        }
      ],
      "name": "syncActiveBudget",
      "outputs": [],
      "stateMutability": "nonpayable",
      "type": "function"
    },
    {
      "inputs": [
        {
          "internalType": "uint256",
          "name": "",
          "type": "uint256"
        }
      ],
      "name": "tokenIdToBudgetIndex",
      "outputs": [
        {
          "internalType": "uint256",
          "name": "",
          "type": "uint256"
        }
      ],
      "stateMutability": "view",
      "type": "function"
    },
    {
      "inputs": [
        {
          "internalType": "address",
          "name": "",
          "type": "address"
        }
      ],
      "name": "totalPaidByPublisher",
      "outputs": [
        {
          "internalType": "uint256",
          "name": "amountAnima",
          "type": "uint256"
        },
        {
          "internalType": "uint256",
          "name": "amountLevica",
          "type": "uint256"
        }
      ],
      "stateMutability": "view",
      "type": "function"
    },
    {
      "inputs": [
        {
          "internalType": "uint256",
          "name": "key",
          "type": "uint256"
        },
        {
          "internalType": "address",
          "name": "depositor",
          "type": "address"
        },
        {
          "internalType": "uint256",
          "name": "amount",
          "type": "uint256"
        },
        {
          "internalType": "address",
          "name": "transferTo",
          "type": "address"
        }
      ],
      "name": "transfer",
      "outputs": [],
      "stateMutability": "nonpayable",
      "type": "function"
    },
    {
      "inputs": [
        {
          "internalType": "address",
          "name": "newOwner",
          "type": "address"
        }
      ],
      "name": "transferOwnership",
      "outputs": [],
      "stateMutability": "nonpayable",
      "type": "function"
    },
    {
      "inputs": [
        {
          "internalType": "address",
          "name": "newImplementation",
          "type": "address"
        }
      ],
      "name": "upgradeTo",
      "outputs": [],
      "stateMutability": "nonpayable",
      "type": "function"
    },
    {
      "inputs": [
        {
          "internalType": "address",
          "name": "newImplementation",
          "type": "address"
        },
        {
          "internalType": "bytes",
          "name": "data",
          "type": "bytes"
        }
      ],
      "name": "upgradeToAndCall",
      "outputs": [],
      "stateMutability": "payable",
      "type": "function"
    },
    {
      "inputs": [
        {
          "internalType": "address",
          "name": "",
          "type": "address"
        },
        {
          "internalType": "uint256",
          "name": "",
          "type": "uint256"
        }
      ],
      "name": "winnerToBudgetIndexes",
      "outputs": [
        {
          "internalType": "uint256",
          "name": "",
          "type": "uint256"
        }
      ],
      "stateMutability": "view",
      "type": "function"
    },
    {
      "inputs": [
        {
          "internalType": "uint256",
          "name": "amount",
          "type": "uint256"
        }
      ],
      "name": "withdrawBudget",
      "outputs": [],
      "stateMutability": "nonpayable",
      "type": "function"
    }
  ],
  "bytecode": "0x60a060405230608052348015601357600080fd5b506080516139b161004b600039600081816118060152818161184601528181611acd01528181611b0d0152611ba001526139b16000f3fe6080604052600436106102915760003560e01c8063715018a61161015a578063adf35395116100c1578063d7c97fb41161007a578063d7c97fb414610998578063e8b58c95146109b8578063e9551ba7146109e5578063f1d588c514610a05578063f2fde38b14610a25578063f8c8765e14610a4557600080fd5b8063adf353951461089f578063b02c43d0146108cc578063b8ba16fd1461090f578063bbd4e8c91461092f578063c7e8edd114610944578063ca1ef3d41461097857600080fd5b80638a3784a6116101135780638a3784a6146107565780638a3d6fda146107765780638da5cb5b146107e857806390f7f5cd146108065780639c9ae14b14610833578063a1e526fa1461086957600080fd5b8063715018a61461068a5780637d217da61461069f5780637e0c1c91146106bf5780637ef379f4146106f357806383baeb5e14610713578063885e71511461073357600080fd5b80633b9c9e5f116101fe5780634fe27baa116101b75780634fe27baa1461055457806352d1902d1461058157806357624a301461059657806359effd56146105ab57806364699865146105f457806369f0e05f1461061457600080fd5b80633b9c9e5f1461047e5780633fd16c561461049e57806341da6d8e146104cb578063428c0b5f1461050157806349c26fcb146105215780634f1ef2861461054157600080fd5b80632cc81a61116102505780632cc81a61146103b15780632dec74a3146103d15780632e4ea4c4146103f15780632f46bb021461041e578063354189f21461043e5780633659cfe61461045e57600080fd5b8062394d7d14610296578062435da5146102d3578063023924c7146102f35780630627c78e146103155780630ab8afac1461035b57806326b859641461037b575b600080fd5b3480156102a257600080fd5b506102b66102b1366004613295565b610a65565b6040516001600160a01b0390911681526020015b60405180910390f35b3480156102df57600080fd5b5060d7546102b6906001600160a01b031681565b3480156102ff57600080fd5b5061031361030e3660046132c3565b610abe565b005b34801561032157600080fd5b5061034d6103303660046132e0565b60cb60209081526000928352604080842090915290825290205481565b6040519081526020016102ca565b34801561036757600080fd5b5060d8546102b6906001600160a01b031681565b34801561038757600080fd5b5061034d6103963660046132c3565b6001600160a01b0316600090815260dc602052604090205490565b3480156103bd57600080fd5b506103136103cc366004613295565b610ae8565b3480156103dd57600080fd5b506103136103ec366004613310565b610c37565b3480156103fd57600080fd5b5061041161040c366004613295565b610ea2565b6040516102ca9190613345565b34801561042a57600080fd5b506103136104393660046132e0565b611009565b34801561044a57600080fd5b506103136104593660046133e5565b6112ef565b34801561046a57600080fd5b506103136104793660046132c3565b6117fc565b34801561048a57600080fd5b5061034d61049936600461343b565b6118db565b3480156104aa57600080fd5b5061034d6104b9366004613295565b600090815260cd602052604090205490565b3480156104d757600080fd5b5061034d6104e63660046132c3565b6001600160a01b0316600090815260e1602052604090205490565b34801561050d57600080fd5b5061031361051c3660046132c3565b61190c565b34801561052d57600080fd5b5061031361053c366004613295565b6119f6565b61031361054f36600461347d565b611ac3565b34801561056057600080fd5b5061034d61056f366004613295565b60db6020526000908152604090205481565b34801561058d57600080fd5b5061034d611b93565b3480156105a257600080fd5b5060da5461034d565b3480156105b757600080fd5b506105df6105c63660046132c3565b60e0602052600090815260409020805460019091015482565b604080519283526020830191909152016102ca565b34801561060057600080fd5b5061034d61060f366004613549565b611c46565b34801561062057600080fd5b5061063461062f366004613295565b611c62565b604080516001600160a01b039a8b16815298151560208a0152968916968801969096526060870194909452608086019290925260a085015260c0840152831660e0830152909116610100820152610120016102ca565b34801561069657600080fd5b50610313611cd5565b3480156106ab57600080fd5b506105df6106ba366004613579565b611ce9565b3480156106cb57600080fd5b506105df6106da3660046132c3565b60df602052600090815260409020805460019091015482565b3480156106ff57600080fd5b5061031361070e3660046135a7565b611d3d565b34801561071f57600080fd5b5061034d61072e36600461343b565b611d49565b34801561073f57600080fd5b5061034d61074e3660046132e0565b600092915050565b34801561076257600080fd5b5060cc546102b6906001600160a01b031681565b34801561078257600080fd5b506107c86107913660046132c3565b6001600160a01b0316600090815260e060209081526040808320805460019182015460df9094529190932080549301549093919291565b6040805194855260208501939093529183015260608201526080016102ca565b3480156107f457600080fd5b506097546001600160a01b03166102b6565b34801561081257600080fd5b5061034d610821366004613295565b60cd6020526000908152604090205481565b34801561083f57600080fd5b5061034d61084e3660046132c3565b6001600160a01b0316600090815260de602052604090205490565b34801561087557600080fd5b5061034d6108843660046132c3565b6001600160a01b0316600090815260dd602052604090205490565b3480156108ab57600080fd5b506108bf6108ba3660046135f1565b611d65565b6040516102ca919061361d565b3480156108d857600080fd5b506108ec6108e7366004613295565b611f7b565b604080519384526001600160a01b039092166020840152908201526060016102ca565b34801561091b57600080fd5b5061034d61092a3660046132c3565b611fba565b34801561093b57600080fd5b5061034d612033565b34801561095057600080fd5b506105df61095f3660046132c3565b60e1602052600090815260409020805460019091015482565b34801561098457600080fd5b506102b6610993366004613295565b61204a565b3480156109a457600080fd5b5060d9546102b6906001600160a01b031681565b3480156109c457600080fd5b5061034d6109d3366004613295565b600090815260ca602052604090205490565b3480156109f157600080fd5b5061034d610a0036600461343b565b6120a3565b348015610a1157600080fd5b50610313610a203660046132c3565b6120bf565b348015610a3157600080fd5b50610313610a403660046132c3565b6120e9565b348015610a5157600080fd5b50610313610a60366004613682565b61215f565b600081815260db6020526040812054808203610a845750600092915050565b600060da8281548110610a9957610a996136d3565b60009182526020909120600660089092020101546001600160a01b0316949350505050565b610ac661248b565b60d880546001600160a01b0319166001600160a01b0392909216919091179055565b60d7546040516335f206d960e21b81523360048201526001600160a01b039091169063d7c81b6490602401602060405180830381865afa158015610b30573d6000803e3d6000fd5b505050506040513d601f19601f82011682018060405250810190610b5491906136e9565b610b795760405162461bcd60e51b8152600401610b7090613706565b60405180910390fd5b6000610b8433611fba565b33600090815260e16020526040902054909150610ba18382613753565b8211610bef5760405162461bcd60e51b815260206004820152601e60248201527f496e73756666696369656e7420617661696c61626c65206465706f73697400006044820152606401610b70565b610bfc60003385336124e5565b5060405183815233907f44cc22e2a72fe54daca38ff0faa55c52b7ceb78759bf43d2e8657ab68b17eeae9060200160405180910390a2505050565b6001600160a01b038316600090815260dc60205260408120905b8281108015610c605750815484105b15610e9b57600060da838381548110610c7b57610c7b6136d3565b906000526020600020015481548110610c9657610c966136d3565b6000918252602090912060d95460089092020160028101546040516331a9108f60e11b815260048101919091529092506001600160a01b0390911690636352211e90602401602060405180830381865afa925050508015610d14575060408051601f3d908101601f19168201909252610d1191810190613766565b60015b610e9457805460ff60a01b1916600160a01b1781558254610d36836001613753565b14610d855782548390610d4b90600190613783565b81548110610d5b57610d5b6136d3565b9060005260206000200154838381548110610d7857610d786136d3565b6000918252602090912001555b82805480610d9557610d95613796565b600082815260208082208301600019908101839055909201909255600383015460018401546001600160a01b0316835260e190915260408220805491929091610ddf908490613783565b909155505060048101546001808301546001600160a01b0316600090815260e1602052604081209091018054909190610e19908490613783565b9091555050600381015460078201546001600160a01b0316600090815260e0602052604081208054909190610e4f908490613783565b9091555050600481015460078201546001600160a01b0316600090815260e0602052604081206001018054909190610e88908490613783565b90915550610c51915050565b5050610c51565b5050505050565b6040805161012081018252600080825260208201819052918101829052606081018290526080810182905260a0810182905260c0810182905260e08101829052610100810191909152600082815260db602052604090205415610fb957600082815260db602052604090205460da80549091908110610f2357610f236136d3565b6000918252602091829020604080516101208101825260089390930290910180546001600160a01b038082168552600160a01b90910460ff1615159484019490945260018101548416918301919091526002810154606083015260038101546080830152600481015460a0830152600581015460c08301526006810154831660e083015260070154909116610100820152611003565b6040805161012081018252600080825260208201819052918101829052606081018290526080810182905260a0810182905260c0810182905260e081018290526101008101919091525b92915050565b600082815260db6020526040812054908190036110745760405162461bcd60e51b8152602060048201526024808201527f427564676574206e6f742073657420666f72207468697320455243373231207460448201526337b5b2b760e11b6064820152608401610b70565b600060da8281548110611089576110896136d3565b6000918252602090912060089091020180549091506001600160a01b0316156110ea5760405162461bcd60e51b8152602060048201526013602482015272109d5919d95d08185b1c9958591e481c185a59606a1b6044820152606401610b70565b6001810154600382015461110d916000916001600160a01b0390911690866124e5565b156112e95780546001600160a01b0319166001600160a01b038481169182178355426005840155600091825260de6020908152604080842080546001810182559085528285200186905560038501546007860154909316845260df909152822080549192909161117e908490613753565b9091555050600481015460078201546001600160a01b0316600090815260df6020526040812060010180549091906111b7908490613753565b9091555050600381015460018201546001600160a01b0316600090815260e16020526040812080549091906111ed908490613783565b909155505060048101546001808301546001600160a01b0316600090815260e1602052604081209091018054909190611227908490613783565b9091555050600381015460078201546001600160a01b0316600090815260e060205260408120805490919061125d908490613783565b9091555050600481015460078201546001600160a01b0316600090815260e0602052604081206001018054909190611296908490613783565b9091555050600181015460038201546040519081526001600160a01b0385811692169086907fee8b4b6501b0466f1bbb1aa5038bae65b7858200d17b05fe51a86d029b52b0839060200160405180910390a45b50505050565b60d7546040516335f206d960e21b81523360048201526001600160a01b039091169063d7c81b6490602401602060405180830381865afa158015611337573d6000803e3d6000fd5b505050506040513d601f19601f8201168201806040525081019061135b91906136e9565b6113775760405162461bcd60e51b8152600401610b7090613706565b600085815260db60205260408120549081900361175957600060405180610120016040528060006001600160a01b03168152602001600015158152602001336001600160a01b0316815260200188815260200187815260200186815260200160008152602001856001600160a01b03168152602001846001600160a01b0316815250905060da80549050915060da81908060018154018082558091505060019003906000526020600020906008020160009091909190915060008201518160000160006101000a8154816001600160a01b0302191690836001600160a01b0316021790555060208201518160000160146101000a81548160ff02191690831515021790555060408201518160010160006101000a8154816001600160a01b0302191690836001600160a01b03160217905550606082015181600201556080820151816003015560a0820151816004015560c0820151816005015560e08201518160060160006101000a8154816001600160a01b0302191690836001600160a01b031602179055506101008201518160070160006101000a8154816001600160a01b0302191690836001600160a01b0316021790555050508160db60008981526020019081526020016000208190555060dc6000336001600160a01b03166001600160a01b0316815260200190815260200160002082908060018154018082558091505060019003906000526020600020016000909190919091505560dd6000846001600160a01b03166001600160a01b0316815260200190815260200160002082908060018154018082558091505060019003906000526020600020016000909190919091505560d860009054906101000a90046001600160a01b03166001600160a01b0316638831bb0c8833896040518463ffffffff1660e01b815260040161163d939291909283526001600160a01b03919091166020830152604082015260600190565b600060405180830381600087803b15801561165757600080fd5b505af115801561166b573d6000803e3d6000fd5b505033600090815260e16020526040812080548a945090925061168f908490613753565b909155505033600090815260e16020526040812060010180548792906116b6908490613753565b90915550506001600160a01b038316600090815260e06020526040812080548892906116e3908490613753565b90915550506001600160a01b038316600090815260e0602052604081206001018054879290611713908490613753565b9091555050604080513381526020810188905288917f40d51cc6bc474a6a695a6a5180d16a745e151b3333dc2bc40332f131a9637df1910160405180910390a2506117f4565b600060da828154811061176e5761176e6136d3565b600091825260209091206001600890920201908101549091506001600160a01b031633146117ed5760405162461bcd60e51b815260206004820152602660248201527f42756467657420616c72656164792073657420627920616e6f7468657220707260448201526537bb34b232b960d11b6064820152608401610b70565b6003018590555b505050505050565b6001600160a01b037f00000000000000000000000000000000000000000000000000000000000000001630036118445760405162461bcd60e51b8152600401610b70906137ac565b7f00000000000000000000000000000000000000000000000000000000000000006001600160a01b031661188d600080516020613935833981519152546001600160a01b031690565b6001600160a01b0316146118b35760405162461bcd60e51b8152600401610b70906137f8565b6118bc816127bf565b604080516000808252602082019092526118d8918391906127c7565b50565b60dc60205281600052604060002081815481106118f757600080fd5b90600052602060002001600091509150505481565b60d7546040516335f206d960e21b81523360048201526001600160a01b039091169063d7c81b6490602401602060405180830381865afa158015611954573d6000803e3d6000fd5b505050506040513d601f19601f8201168201806040525081019061197891906136e9565b6119945760405162461bcd60e51b8152600401610b7090613706565b60d75460405163ab01b46960e01b81526001600160a01b038381166004830152600160248301529091169063ab01b46990604401600060405180830381600087803b1580156119e257600080fd5b505af1158015610e9b573d6000803e3d6000fd5b60d7546040516335f206d960e21b81523360048201526001600160a01b039091169063d7c81b6490602401602060405180830381865afa158015611a3e573d6000803e3d6000fd5b505050506040513d601f19601f82011682018060405250810190611a6291906136e9565b611a7e5760405162461bcd60e51b8152600401610b7090613706565b611a8a60003383612937565b5060405181815233907f4fde519874c4d96f6f52999828a364a85f912585e02d2adbe03a9170ca7d856d9060200160405180910390a250565b6001600160a01b037f0000000000000000000000000000000000000000000000000000000000000000163003611b0b5760405162461bcd60e51b8152600401610b70906137ac565b7f00000000000000000000000000000000000000000000000000000000000000006001600160a01b0316611b54600080516020613935833981519152546001600160a01b031690565b6001600160a01b031614611b7a5760405162461bcd60e51b8152600401610b70906137f8565b611b83826127bf565b611b8f828260016127c7565b5050565b6000306001600160a01b037f00000000000000000000000000000000000000000000000000000000000000001614611c335760405162461bcd60e51b815260206004820152603860248201527f555550535570677261646561626c653a206d757374206e6f742062652063616c60448201527f6c6564207468726f7567682064656c656761746563616c6c00000000000000006064820152608401610b70565b5060008051602061393583398151915290565b60ca60205281600052604060002081815481106118f757600080fd5b60da8181548110611c7257600080fd5b6000918252602090912060089091020180546001820154600283015460038401546004850154600586015460068701546007909701546001600160a01b038088169950600160a01b90970460ff1697958716969495939492939192918216911689565b611cdd61248b565b611ce76000612cf3565b565b600080600083611d10576001600160a01b038516600090815260e060205260409020611d29565b6001600160a01b038516600090815260e1602052604090205b805460019091015490969095509350505050565b610e9b848484846124e5565b60dd60205281600052604060002081815481106118f757600080fd5b600083815260ca60205260409020805460609190808510611dc85760405162461bcd60e51b815260206004820152601b60248201527f537461727420696e646578206973206f7574206f662072616e676500000000006044820152606401610b70565b60008411611e185760405162461bcd60e51b815260206004820152601f60248201527f4c696d6974206d7573742062652067726561746572207468616e207a65726f006044820152606401610b70565b6000611e248587613753565b905081811115611e315750805b6000611e3d8783613783565b905060008167ffffffffffffffff811115611e5a57611e5a613467565b604051908082528060200260200182016040528015611eb857816020015b611ea560405180606001604052806000815260200160006001600160a01b03168152602001600081525090565b815260200190600190039081611e785790505b50905060005b82811015611f6e57600086611ed3838c613753565b81548110611ee357611ee36136d3565b9060005260206000200154905060c98181548110611f0357611f036136d3565b60009182526020918290206040805160608101825260039093029091018054835260018101546001600160a01b031693830193909352600290920154918101919091528351849084908110611f5a57611f5a6136d3565b602090810291909101015250600101611ebe565b5098975050505050505050565b60c98181548110611f8b57600080fd5b60009182526020909120600390910201805460018201546002909201549092506001600160a01b039091169083565b6001600160a01b03811660009081527f4239c2c8c3d9b94feb214b0f54d7c869ce1ceb63517be57644336cda4967a46860205260408120548082036120025750600092915050565b600060c98281548110612017576120176136d3565b6000918252602090912060026003909202010154949350505050565b60c95460009061204590600190613783565b905090565b600081815260db60205260408120548082036120695750600092915050565b600060da828154811061207e5761207e6136d3565b60009182526020909120600160089092020101546001600160a01b0316949350505050565b60de60205281600052604060002081815481106118f757600080fd5b6120c761248b565b60d780546001600160a01b0319166001600160a01b0392909216919091179055565b6120f161248b565b6001600160a01b0381166121565760405162461bcd60e51b815260206004820152602660248201527f4f776e61626c653a206e6577206f776e657220697320746865207a65726f206160448201526564647265737360d01b6064820152608401610b70565b6118d881612cf3565b600054610100900460ff161580801561217f5750600054600160ff909116105b806121995750303b158015612199575060005460ff166001145b6121fc5760405162461bcd60e51b815260206004820152602e60248201527f496e697469616c697a61626c653a20636f6e747261637420697320616c72656160448201526d191e481a5b9a5d1a585b1a5e995960921b6064820152608401610b70565b6000805460ff19166001179055801561221f576000805461ff0019166101001790555b612227612d45565b61222f612d6c565b61223885612d9b565b60d780546001600160a01b038087166001600160a01b03199283161790925560d8805486841690831617905560d980548584169083161790556040805161012081018252600080825260208201818152928201818152606083018281526080840183815260a0850184815260c0860185815260e08701868152610100880187815260da80546001810182559852975160089097027fb3d6e86317c38844915b053a0c35ff2fc103b684e96cef2918ab06844eb51aaf810180549a511515600160a01b026001600160a81b0319909b16988d16989098179990991790965593517fb3d6e86317c38844915b053a0c35ff2fc103b684e96cef2918ab06844eb51ab088018054918b16918a1691909117905591517fb3d6e86317c38844915b053a0c35ff2fc103b684e96cef2918ab06844eb51ab1870155517fb3d6e86317c38844915b053a0c35ff2fc103b684e96cef2918ab06844eb51ab2860155517fb3d6e86317c38844915b053a0c35ff2fc103b684e96cef2918ab06844eb51ab3850155517fb3d6e86317c38844915b053a0c35ff2fc103b684e96cef2918ab06844eb51ab4840155517fb3d6e86317c38844915b053a0c35ff2fc103b684e96cef2918ab06844eb51ab583018054918616918516919091179055517fb3d6e86317c38844915b053a0c35ff2fc103b684e96cef2918ab06844eb51ab690910180549190931691161790558015610e9b576000805461ff0019169055604051600181527f7f26b83ff96e1f2b6a682f133852f6798a09c465da95921460cefb38474024989060200160405180910390a15050505050565b6097546001600160a01b03163314611ce75760405162461bcd60e51b815260206004820181905260248201527f4f776e61626c653a2063616c6c6572206973206e6f7420746865206f776e65726044820152606401610b70565b60008083116125365760405162461bcd60e51b815260206004820181905260248201527f416d6f756e74206d7573742062652067726561746572207468616e207a65726f6044820152606401610b70565b6001600160a01b0384166125885760405162461bcd60e51b8152602060048201526019602482015278496e76616c6964206465706f7369746f72206164647265737360381b6044820152606401610b70565b6001600160a01b0382166125de5760405162461bcd60e51b815260206004820152601860248201527f496e76616c6964207472616e73666572206164647265737300000000000000006044820152606401610b70565b600085815260cb602090815260408083206001600160a01b0388168452909152812054908190036126605760405162461bcd60e51b815260206004820152602660248201527f4e6f206465706f73697420666f756e6420666f72206465706f7369746f7220616044820152656e64206b657960d01b6064820152608401610b70565b600060c98281548110612675576126756136d3565b9060005260206000209060030201905084816002015410156126d95760405162461bcd60e51b815260206004820152601b60248201527f496e73756666696369656e74206465706f73697420616d6f756e7400000000006044820152606401610b70565b848160020160008282546126ed9190613783565b9091555050600281015460000361270957612709828888612e91565b600087815260cd60205260409020548290036127385761272887612f80565b600088815260cd60205260409020555b60cc5460405163a9059cbb60e01b81526001600160a01b038681166004830152602482018890529091169063a9059cbb906044016020604051808303816000875af115801561278b573d6000803e3d6000fd5b505050506040513d601f19601f820116820180604052508101906127af91906136e9565b506001925050505b949350505050565b6118d861248b565b7f4910fdfa16fed3260ed0e7147f7cc6da11a60208b5b9406d12a635614ffd91435460ff16156127ff576127fa83613022565b505050565b826001600160a01b03166352d1902d6040518163ffffffff1660e01b8152600401602060405180830381865afa925050508015612859575060408051601f3d908101601f1916820190925261285691810190613844565b60015b6128bc5760405162461bcd60e51b815260206004820152602e60248201527f45524331393637557067726164653a206e657720696d706c656d656e7461746960448201526d6f6e206973206e6f74205555505360901b6064820152608401610b70565b600080516020613935833981519152811461292b5760405162461bcd60e51b815260206004820152602960248201527f45524331393637557067726164653a20756e737570706f727465642070726f786044820152681a58589b195555525160ba1b6064820152608401610b70565b506127fa8383836130be565b600080821161297c5760405162461bcd60e51b8152602060048201526011602482015270416d6f756e7420697320746f6f206c6f7760781b6044820152606401610b70565b6001600160a01b0383166129ce5760405162461bcd60e51b8152602060048201526019602482015278496e76616c6964206465706f7369746f72206164647265737360381b6044820152606401610b70565b600084815260cb602090815260408083206001600160a01b038716845290915281205490819003612b755760cc546040516323b872dd60e01b81526001600160a01b03868116600483015230602483015260448201869052909116906323b872dd906064016020604051808303816000875af1158015612a52573d6000803e3d6000fd5b505050506040513d601f19601f82011682018060405250810190612a7691906136e9565b50604080516060810182528681526001600160a01b03868116602080840182815284860189815260c9805460018082018355600092835297517f66be4f155c5ef2ebd3772b228f2f00681e4ed5826cdb3b1943cc11ad15ad1d28600383029081019190915593517f66be4f155c5ef2ebd3772b228f2f00681e4ed5826cdb3b1943cc11ad15ad1d29850180546001600160a01b031916919098161790965590517f66be4f155c5ef2ebd3772b228f2f00681e4ed5826cdb3b1943cc11ad15ad1d2a909201919091558a815260ca825285812080549586018155815281812090940183905589845260cb8152848420918452529190208190559150612c32565b60cc546040516323b872dd60e01b81526001600160a01b03868116600483015230602483015260448201869052909116906323b872dd906064016020604051808303816000875af1158015612bce573d6000803e3d6000fd5b505050506040513d601f19601f82011682018060405250810190612bf291906136e9565b508260c98281548110612c0757612c076136d3565b90600052602060002090600302016002016000828254612c279190613753565b925050819055508091505b600085815260cd6020526040902054828114612cea57600080612c6d8860c98581548110612c6257612c626136d3565b506000908152919050565b90508160c98681548110612c8357612c836136d3565b906000526020600020906003020160020154612c9f9190613753565b8160c98581548110612cb357612cb36136d3565b906000526020600020906003020160020154612ccf9190613753565b1015612ce757600088815260cd602052604090208590555b50505b50509392505050565b609780546001600160a01b038381166001600160a01b0319831681179093556040519116919082907f8be0079c531659141344cd1fd0a4f28419497f9722a3daafe3b4186f6b6457e090600090a35050565b600054610100900460ff16611ce75760405162461bcd60e51b8152600401610b709061385d565b600054610100900460ff16612d935760405162461bcd60e51b8152600401610b709061385d565b611ce76130e3565b600054610100900460ff16612dc25760405162461bcd60e51b8152600401610b709061385d565b60cc80546001600160a01b03199081166001600160a01b03938416179091556040805160608101825260008082526020820181815292820181815260c98054600181018255925291517f66be4f155c5ef2ebd3772b228f2f00681e4ed5826cdb3b1943cc11ad15ad1d2860039092029182015591517f66be4f155c5ef2ebd3772b228f2f00681e4ed5826cdb3b1943cc11ad15ad1d298301805490941694169390931790915590517f66be4f155c5ef2ebd3772b228f2f00681e4ed5826cdb3b1943cc11ad15ad1d2a90910155565b600082815260cb602090815260408083206001600160a01b0385168452825280832083905584835260ca90915281208054909190612ed190600190613783565b905060005b8181116117f45785838281548110612ef057612ef06136d3565b906000526020600020015403612f6e57818114612f4357828281548110612f1957612f196136d3565b9060005260206000200154838281548110612f3657612f366136d3565b6000918252602090912001555b82805480612f5357612f53613796565b600190038181906000526020600020016000905590556117f4565b80612f78816138a8565b915050612ed6565b600081815260ca6020526040812081805b825481101561301a576000838281548110612fae57612fae6136d3565b90600052602060002001549050600060c98281548110612fd057612fd06136d3565b60009182526020822060039190910201915084818360020154612ff39190613753565b111561300f578082600201546130099190613753565b94508296505b505050600101612f91565b505050919050565b6001600160a01b0381163b61308f5760405162461bcd60e51b815260206004820152602d60248201527f455243313936373a206e657720696d706c656d656e746174696f6e206973206e60448201526c1bdd08184818dbdb9d1c9858dd609a1b6064820152608401610b70565b60008051602061393583398151915280546001600160a01b0319166001600160a01b0392909216919091179055565b6130c783613113565b6000825111806130d45750805b156127fa576112e98383613153565b600054610100900460ff1661310a5760405162461bcd60e51b8152600401610b709061385d565b611ce733612cf3565b61311c81613022565b6040516001600160a01b038216907fbc7cd75a20ee27fd9adebab32041f755214dbc6bffa90cc0225b39da2e5c2d3b90600090a250565b606061317883836040518060600160405280602781526020016139556027913961317f565b9392505050565b6060600080856001600160a01b03168560405161319c91906138e5565b600060405180830381855af49150503d80600081146131d7576040519150601f19603f3d011682016040523d82523d6000602084013e6131dc565b606091505b50915091506131ed868383876131f7565b9695505050505050565b6060831561326657825160000361325f576001600160a01b0385163b61325f5760405162461bcd60e51b815260206004820152601d60248201527f416464726573733a2063616c6c20746f206e6f6e2d636f6e74726163740000006044820152606401610b70565b50816127b7565b6127b7838381511561327b5781518083602001fd5b8060405162461bcd60e51b8152600401610b709190613901565b6000602082840312156132a757600080fd5b5035919050565b6001600160a01b03811681146118d857600080fd5b6000602082840312156132d557600080fd5b8135613178816132ae565b600080604083850312156132f357600080fd5b823591506020830135613305816132ae565b809150509250929050565b60008060006060848603121561332557600080fd5b8335613330816132ae565b95602085013595506040909401359392505050565b81516001600160a01b0316815260208083015115159082015260408083015161012083019161337e908401826001600160a01b03169052565b50606083015160608301526080830151608083015260a083015160a083015260c083015160c083015260e08301516133c160e08401826001600160a01b03169052565b506101008301516133de6101008401826001600160a01b03169052565b5092915050565b600080600080600060a086880312156133fd57600080fd5b853594506020860135935060408601359250606086013561341d816132ae565b9150608086013561342d816132ae565b809150509295509295909350565b6000806040838503121561344e57600080fd5b8235613459816132ae565b946020939093013593505050565b634e487b7160e01b600052604160045260246000fd5b6000806040838503121561349057600080fd5b823561349b816132ae565b9150602083013567ffffffffffffffff8111156134b757600080fd5b8301601f810185136134c857600080fd5b803567ffffffffffffffff8111156134e2576134e2613467565b604051601f8201601f19908116603f0116810167ffffffffffffffff8111828210171561351157613511613467565b60405281815282820160200187101561352957600080fd5b816020840160208301376000602083830101528093505050509250929050565b6000806040838503121561355c57600080fd5b50508035926020909101359150565b80151581146118d857600080fd5b6000806040838503121561358c57600080fd5b8235613597816132ae565b915060208301356133058161356b565b600080600080608085870312156135bd57600080fd5b8435935060208501356135cf816132ae565b92506040850135915060608501356135e6816132ae565b939692955090935050565b60008060006060848603121561360657600080fd5b505081359360208301359350604090920135919050565b602080825282518282018190526000918401906040840190835b81811015613677578351805184526020808201516001600160a01b0316818601526040918201519185019190915290930192606090920191600101613637565b509095945050505050565b6000806000806080858703121561369857600080fd5b84356136a3816132ae565b935060208501356136b3816132ae565b925060408501356136c3816132ae565b915060608501356135e6816132ae565b634e487b7160e01b600052603260045260246000fd5b6000602082840312156136fb57600080fd5b81516131788161356b565b6020808252601e908201527f43616c6c6572206973206e6f7420612062756467657450726f76696465720000604082015260600190565b634e487b7160e01b600052601160045260246000fd5b808201808211156110035761100361373d565b60006020828403121561377857600080fd5b8151613178816132ae565b818103818111156110035761100361373d565b634e487b7160e01b600052603160045260246000fd5b6020808252602c908201527f46756e6374696f6e206d7573742062652063616c6c6564207468726f7567682060408201526b19195b1959d85d1958d85b1b60a21b606082015260800190565b6020808252602c908201527f46756e6374696f6e206d7573742062652063616c6c6564207468726f7567682060408201526b6163746976652070726f787960a01b606082015260800190565b60006020828403121561385657600080fd5b5051919050565b6020808252602b908201527f496e697469616c697a61626c653a20636f6e7472616374206973206e6f74206960408201526a6e697469616c697a696e6760a81b606082015260800190565b6000600182016138ba576138ba61373d565b5060010190565b60005b838110156138dc5781810151838201526020016138c4565b50506000910152565b600082516138f78184602087016138c1565b9190910192915050565b60208152600082518060208401526139208160408501602087016138c1565b601f01601f1916919091016040019291505056fe360894a13ba1a3210667c828492db98dca3e2076cc3735a920a3ca505d382bbc416464726573733a206c6f772d6c6576656c2064656c65676174652063616c6c206661696c6564a2646970667358221220fba96a9ba841554042110015fe6da81f9dbff7ad2ccb95f606ed5a9c7fd0b60064736f6c634300081b0033",
  "linkReferences": {},
  "deployedLinkReferences": {}
}